{
  "_format": "hh-sol-artifact-1",
  "contractName": "Stakeable",
  "sourceName": "contracts/Stakeable.sol",
  "abi": [
    {
      "inputs": [
        {
          "internalType": "address",
          "name": "_add",
          "type": "address"
        }
      ],
      "stateMutability": "nonpayable",
      "type": "constructor"
    },
    {
      "anonymous": false,
      "inputs": [
        {
          "indexed": true,
          "internalType": "address",
          "name": "previousOwner",
          "type": "address"
        },
        {
          "indexed": true,
          "internalType": "address",
          "name": "newOwner",
          "type": "address"
        }
      ],
      "name": "OwnershipTransferred",
      "type": "event"
    },
    {
      "anonymous": false,
      "inputs": [
        {
          "indexed": true,
          "internalType": "address",
          "name": "user",
          "type": "address"
        },
        {
          "indexed": false,
          "internalType": "uint256",
          "name": "amount",
          "type": "uint256"
        },
        {
          "indexed": false,
          "internalType": "uint256",
          "name": "timestamp",
          "type": "uint256"
        }
      ],
      "name": "Staked",
      "type": "event"
    },
    {
      "anonymous": false,
      "inputs": [
        {
          "indexed": true,
          "internalType": "address",
          "name": "user",
          "type": "address"
        },
        {
          "indexed": false,
          "internalType": "uint256",
          "name": "amount",
          "type": "uint256"
        },
        {
          "indexed": false,
          "internalType": "uint256",
          "name": "timestamp",
          "type": "uint256"
        }
      ],
      "name": "UnStaked",
      "type": "event"
    },
    {
      "inputs": [],
      "name": "collectFee",
      "outputs": [],
      "stateMutability": "nonpayable",
      "type": "function"
    },
    {
      "inputs": [],
      "name": "owner",
      "outputs": [
        {
          "internalType": "address",
          "name": "",
          "type": "address"
        }
      ],
      "stateMutability": "view",
      "type": "function"
    },
    {
      "inputs": [],
      "name": "renounceOwnership",
      "outputs": [],
      "stateMutability": "nonpayable",
      "type": "function"
    },
    {
      "inputs": [
        {
          "internalType": "address",
          "name": "_addr",
          "type": "address"
        }
      ],
      "name": "setTreasury",
      "outputs": [],
      "stateMutability": "nonpayable",
      "type": "function"
    },
    {
      "inputs": [
        {
          "internalType": "uint256",
          "name": "_amount",
          "type": "uint256"
        }
      ],
      "name": "stake",
      "outputs": [],
      "stateMutability": "nonpayable",
      "type": "function"
    },
    {
      "inputs": [],
      "name": "total_fee",
      "outputs": [
        {
          "internalType": "uint256",
          "name": "",
          "type": "uint256"
        }
      ],
      "stateMutability": "view",
      "type": "function"
    },
    {
      "inputs": [
        {
          "internalType": "address",
          "name": "newOwner",
          "type": "address"
        }
      ],
      "name": "transferOwnership",
      "outputs": [],
      "stateMutability": "nonpayable",
      "type": "function"
    },
    {
      "inputs": [],
      "name": "treasury",
      "outputs": [
        {
          "internalType": "address",
          "name": "",
          "type": "address"
        }
      ],
      "stateMutability": "view",
      "type": "function"
    },
    {
      "inputs": [
        {
          "internalType": "uint256",
          "name": "_amount",
          "type": "uint256"
        }
      ],
      "name": "unstake",
      "outputs": [],
      "stateMutability": "nonpayable",
      "type": "function"
    }
  ],
  "bytecode": "0x60806040523480156200001157600080fd5b50604051620016f3380380620016f3833981810160405281019062000037919062000182565b620000576200004b6200009f60201b60201c565b620000a760201b60201c565b80600160006101000a81548173ffffffffffffffffffffffffffffffffffffffff021916908373ffffffffffffffffffffffffffffffffffffffff16021790555050620001fc565b600033905090565b60008060009054906101000a900473ffffffffffffffffffffffffffffffffffffffff169050816000806101000a81548173ffffffffffffffffffffffffffffffffffffffff021916908373ffffffffffffffffffffffffffffffffffffffff1602179055508173ffffffffffffffffffffffffffffffffffffffff168173ffffffffffffffffffffffffffffffffffffffff167f8be0079c531659141344cd1fd0a4f28419497f9722a3daafe3b4186f6b6457e060405160405180910390a35050565b6000815190506200017c81620001e2565b92915050565b6000602082840312156200019557600080fd5b6000620001a5848285016200016b565b91505092915050565b6000620001bb82620001c2565b9050919050565b600073ffffffffffffffffffffffffffffffffffffffff82169050919050565b620001ed81620001ae565b8114620001f957600080fd5b50565b6114e7806200020c6000396000f3fe608060405234801561001057600080fd5b50600436106100935760003560e01c8063a694fc3a11610066578063a694fc3a146100fa578063d0bdbd2814610116578063d4d5d32a14610134578063f0f442601461013e578063f2fde38b1461015a57610093565b80632e17de781461009857806361d027b3146100b4578063715018a6146100d25780638da5cb5b146100dc575b600080fd5b6100b260048036038101906100ad9190610dbf565b610176565b005b6100bc610434565b6040516100c99190610f24565b60405180910390f35b6100da61045a565b005b6100e46104e2565b6040516100f19190610f24565b60405180910390f35b610114600480360381019061010f9190610dbf565b61050b565b005b61011e6108a1565b60405161012b919061107f565b60405180910390f35b61013c6108a7565b005b61015860048036038101906101539190610d6d565b6109f9565b005b610174600480360381019061016f9190610d6d565b610b29565b005b80600460003373ffffffffffffffffffffffffffffffffffffffff1673ffffffffffffffffffffffffffffffffffffffff1681526020019081526020016000206001015410156101fb576040517f08c379a00000000000000000000000000000000000000000000000000000000081526004016101f29061105f565b60405180910390fd5b611c20610253600460003373ffffffffffffffffffffffffffffffffffffffff1673ffffffffffffffffffffffffffffffffffffffff1681526020019081526020016000206002015442610c2190919063ffffffff16565b1015610294576040517f08c379a000000000000000000000000000000000000000000000000000000000815260040161028b9061103f565b60405180910390fd5b6102e981600460003373ffffffffffffffffffffffffffffffffffffffff1673ffffffffffffffffffffffffffffffffffffffff16815260200190815260200160002060010154610c2190919063ffffffff16565b600460003373ffffffffffffffffffffffffffffffffffffffff1673ffffffffffffffffffffffffffffffffffffffff16815260200190815260200160002060010181905550600160009054906101000a900473ffffffffffffffffffffffffffffffffffffffff1673ffffffffffffffffffffffffffffffffffffffff166323b872dd3033846040518463ffffffff1660e01b815260040161038e93929190610f3f565b602060405180830381600087803b1580156103a857600080fd5b505af11580156103bc573d6000803e3d6000fd5b505050506040513d601f19601f820116820180604052508101906103e09190610d96565b503373ffffffffffffffffffffffffffffffffffffffff167ff26c0304cc83daf500e1dc22ab2e3cf954b3d506d62e34d70cc054255079e397824260405161042992919061109a565b60405180910390a250565b600360009054906101000a900473ffffffffffffffffffffffffffffffffffffffff1681565b610462610c37565b73ffffffffffffffffffffffffffffffffffffffff166104806104e2565b73ffffffffffffffffffffffffffffffffffffffff16146104d6576040517f08c379a00000000000000000000000000000000000000000000000000000000081526004016104cd9061101f565b60405180910390fd5b6104e06000610c3f565b565b60008060009054906101000a900473ffffffffffffffffffffffffffffffffffffffff16905090565b6000811161054e576040517f08c379a000000000000000000000000000000000000000000000000000000000815260040161054590610f9f565b60405180910390fd5b600160009054906101000a900473ffffffffffffffffffffffffffffffffffffffff1673ffffffffffffffffffffffffffffffffffffffff166370a08231336040518263ffffffff1660e01b81526004016105a99190610f24565b60206040518083038186803b1580156105c157600080fd5b505afa1580156105d5573d6000803e3d6000fd5b505050506040513d601f19601f820116820180604052508101906105f99190610de8565b81111561063b576040517f08c379a000000000000000000000000000000000000000000000000000000000815260040161063290610fff565b60405180910390fd5b600042905060006103e8600284610652919061115b565b61065c919061112a565b905061067381600254610d0390919063ffffffff16565b60028190555033600460003373ffffffffffffffffffffffffffffffffffffffff1673ffffffffffffffffffffffffffffffffffffffff16815260200190815260200160002060000160006101000a81548173ffffffffffffffffffffffffffffffffffffffff021916908373ffffffffffffffffffffffffffffffffffffffff16021790555061070d8184610c2190919063ffffffff16565b600460003373ffffffffffffffffffffffffffffffffffffffff1673ffffffffffffffffffffffffffffffffffffffff1681526020019081526020016000206001018190555081600460003373ffffffffffffffffffffffffffffffffffffffff1673ffffffffffffffffffffffffffffffffffffffff16815260200190815260200160002060020181905550600160009054906101000a900473ffffffffffffffffffffffffffffffffffffffff1673ffffffffffffffffffffffffffffffffffffffff166323b872dd3330866040518463ffffffff1660e01b81526004016107f993929190610f3f565b602060405180830381600087803b15801561081357600080fd5b505af1158015610827573d6000803e3d6000fd5b505050506040513d601f19601f8201168201806040525081019061084b9190610d96565b503373ffffffffffffffffffffffffffffffffffffffff167f1449c6dd7851abc30abf37f57715f492010519147cc2652fbc38202c18a6ee90848460405161089492919061109a565b60405180910390a2505050565b60025481565b6108af610c37565b73ffffffffffffffffffffffffffffffffffffffff166108cd6104e2565b73ffffffffffffffffffffffffffffffffffffffff1614610923576040517f08c379a000000000000000000000000000000000000000000000000000000000815260040161091a9061101f565b60405180910390fd5b600160009054906101000a900473ffffffffffffffffffffffffffffffffffffffff1673ffffffffffffffffffffffffffffffffffffffff1663a9059cbb600360009054906101000a900473ffffffffffffffffffffffffffffffffffffffff166002546040518363ffffffff1660e01b81526004016109a4929190610f76565b602060405180830381600087803b1580156109be57600080fd5b505af11580156109d2573d6000803e3d6000fd5b505050506040513d601f19601f820116820180604052508101906109f69190610d96565b50565b610a01610c37565b73ffffffffffffffffffffffffffffffffffffffff16610a1f6104e2565b73ffffffffffffffffffffffffffffffffffffffff1614610a75576040517f08c379a0000000000000000000000000000000000000000000000000000000008152600401610a6c9061101f565b60405180910390fd5b600073ffffffffffffffffffffffffffffffffffffffff168173ffffffffffffffffffffffffffffffffffffffff161415610ae5576040517f08c379a0000000000000000000000000000000000000000000000000000000008152600401610adc90610fdf565b60405180910390fd5b80600360006101000a81548173ffffffffffffffffffffffffffffffffffffffff021916908373ffffffffffffffffffffffffffffffffffffffff16021790555050565b610b31610c37565b73ffffffffffffffffffffffffffffffffffffffff16610b4f6104e2565b73ffffffffffffffffffffffffffffffffffffffff1614610ba5576040517f08c379a0000000000000000000000000000000000000000000000000000000008152600401610b9c9061101f565b60405180910390fd5b600073ffffffffffffffffffffffffffffffffffffffff168173ffffffffffffffffffffffffffffffffffffffff161415610c15576040517f08c379a0000000000000000000000000000000000000000000000000000000008152600401610c0c90610fbf565b60405180910390fd5b610c1e81610c3f565b50565b60008183610c2f91906111b5565b905092915050565b600033905090565b60008060009054906101000a900473ffffffffffffffffffffffffffffffffffffffff169050816000806101000a81548173ffffffffffffffffffffffffffffffffffffffff021916908373ffffffffffffffffffffffffffffffffffffffff1602179055508173ffffffffffffffffffffffffffffffffffffffff168173ffffffffffffffffffffffffffffffffffffffff167f8be0079c531659141344cd1fd0a4f28419497f9722a3daafe3b4186f6b6457e060405160405180910390a35050565b60008183610d1191906110d4565b905092915050565b600081359050610d288161146c565b92915050565b600081519050610d3d81611483565b92915050565b600081359050610d528161149a565b92915050565b600081519050610d678161149a565b92915050565b600060208284031215610d7f57600080fd5b6000610d8d84828501610d19565b91505092915050565b600060208284031215610da857600080fd5b6000610db684828501610d2e565b91505092915050565b600060208284031215610dd157600080fd5b6000610ddf84828501610d43565b91505092915050565b600060208284031215610dfa57600080fd5b6000610e0884828501610d58565b91505092915050565b610e1a816111e9565b82525050565b6000610e2d601d836110c3565b9150610e388261128f565b602082019050919050565b6000610e506026836110c3565b9150610e5b826112b8565b604082019050919050565b6000610e736027836110c3565b9150610e7e82611307565b604082019050919050565b6000610e96602d836110c3565b9150610ea182611356565b604082019050919050565b6000610eb96020836110c3565b9150610ec4826113a5565b602082019050919050565b6000610edc6034836110c3565b9150610ee7826113ce565b604082019050919050565b6000610eff6032836110c3565b9150610f0a8261141d565b604082019050919050565b610f1e81611227565b82525050565b6000602082019050610f396000830184610e11565b92915050565b6000606082019050610f546000830186610e11565b610f616020830185610e11565b610f6e6040830184610f15565b949350505050565b6000604082019050610f8b6000830185610e11565b610f986020830184610f15565b9392505050565b60006020820190508181036000830152610fb881610e20565b9050919050565b60006020820190508181036000830152610fd881610e43565b9050919050565b60006020820190508181036000830152610ff881610e66565b9050919050565b6000602082019050818103600083015261101881610e89565b9050919050565b6000602082019050818103600083015261103881610eac565b9050919050565b6000602082019050818103600083015261105881610ecf565b9050919050565b6000602082019050818103600083015261107881610ef2565b9050919050565b60006020820190506110946000830184610f15565b92915050565b60006040820190506110af6000830185610f15565b6110bc6020830184610f15565b9392505050565b600082825260208201905092915050565b60006110df82611227565b91506110ea83611227565b9250827fffffffffffffffffffffffffffffffffffffffffffffffffffffffffffffffff0382111561111f5761111e611231565b5b828201905092915050565b600061113582611227565b915061114083611227565b9250826111505761114f611260565b5b828204905092915050565b600061116682611227565b915061117183611227565b9250817fffffffffffffffffffffffffffffffffffffffffffffffffffffffffffffffff04831182151516156111aa576111a9611231565b5b828202905092915050565b60006111c082611227565b91506111cb83611227565b9250828210156111de576111dd611231565b5b828203905092915050565b60006111f482611207565b9050919050565b60008115159050919050565b600073ffffffffffffffffffffffffffffffffffffffff82169050919050565b6000819050919050565b7f4e487b7100000000000000000000000000000000000000000000000000000000600052601160045260246000fd5b7f4e487b7100000000000000000000000000000000000000000000000000000000600052601260045260246000fd5b7f5374616b696e673a2043616e6e6f74207374616b65206e6f7468696e67000000600082015250565b7f4f776e61626c653a206e6577206f776e657220697320746865207a65726f206160008201527f6464726573730000000000000000000000000000000000000000000000000000602082015250565b7f547265617375727920616464726573732063616e6e6f74206265207a65726f2060008201527f6164647265737300000000000000000000000000000000000000000000000000602082015250565b7f5374616b696e673a2043616e6e6f74207374616b65206d6f7265207468616e2060008201527f7768617420757365722068617300000000000000000000000000000000000000602082015250565b7f4f776e61626c653a2063616c6c6572206973206e6f7420746865206f776e6572600082015250565b7f5374616b696e673a205769746864726177206f6e6c792061667465722065787060008201527f697279206f66206c6f636b696e20706572696f64000000000000000000000000602082015250565b7f5374616b696e673a2043616e6e6f74207769746864726177206d6f726520746860008201527f616e20796f752068617665207374616b65640000000000000000000000000000602082015250565b611475816111e9565b811461148057600080fd5b50565b61148c816111fb565b811461149757600080fd5b50565b6114a381611227565b81146114ae57600080fd5b5056fea2646970667358221220a02abd30ce8a423d28b717084b3804f34fb3df8435845107995ed93f2af8a5ef64736f6c63430008040033",
  "linkReferences": {},
  "deployedLinkReferences": {}
}