{
  "_format": "hh-sol-artifact-1",
  "contractName": "ERC20",
  "sourceName": "contracts/ERC20.sol",
  "abi": [
    {
      "inputs": [
        {
          "internalType": "string",
          "name": "name_",
          "type": "string"
        },
        {
          "internalType": "string",
          "name": "symbol_",
          "type": "string"
        }
      ],
      "stateMutability": "nonpayable",
      "type": "constructor"
    },
    {
      "anonymous": false,
      "inputs": [
        {
          "indexed": true,
          "internalType": "address",
          "name": "owner",
          "type": "address"
        },
        {
          "indexed": true,
          "internalType": "address",
          "name": "spender",
          "type": "address"
        },
        {
          "indexed": false,
          "internalType": "uint256",
          "name": "value",
          "type": "uint256"
        }
      ],
      "name": "Approval",
      "type": "event"
    },
    {
      "anonymous": false,
      "inputs": [
        {
          "indexed": true,
          "internalType": "address",
          "name": "_from",
          "type": "address"
        },
        {
          "indexed": true,
          "internalType": "address",
          "name": "_to",
          "type": "address"
        },
        {
          "indexed": false,
          "internalType": "uint256",
          "name": "_value",
          "type": "uint256"
        }
      ],
      "name": "Transfer",
      "type": "event"
    },
    {
      "inputs": [
        {
          "internalType": "address",
          "name": "owner",
          "type": "address"
        },
        {
          "internalType": "address",
          "name": "delegate",
          "type": "address"
        }
      ],
      "name": "allowance",
      "outputs": [
        {
          "internalType": "uint256",
          "name": "",
          "type": "uint256"
        }
      ],
      "stateMutability": "view",
      "type": "function"
    },
    {
      "inputs": [
        {
          "internalType": "address",
          "name": "delegate",
          "type": "address"
        },
        {
          "internalType": "uint256",
          "name": "numTokens",
          "type": "uint256"
        }
      ],
      "name": "approve",
      "outputs": [
        {
          "internalType": "bool",
          "name": "",
          "type": "bool"
        }
      ],
      "stateMutability": "nonpayable",
      "type": "function"
    },
    {
      "inputs": [
        {
          "internalType": "address",
          "name": "_who",
          "type": "address"
        }
      ],
      "name": "balanceOf",
      "outputs": [
        {
          "internalType": "uint256",
          "name": "",
          "type": "uint256"
        }
      ],
      "stateMutability": "view",
      "type": "function"
    },
    {
      "inputs": [],
      "name": "decimals",
      "outputs": [
        {
          "internalType": "uint8",
          "name": "",
          "type": "uint8"
        }
      ],
      "stateMutability": "pure",
      "type": "function"
    },
    {
      "inputs": [],
      "name": "symbol",
      "outputs": [
        {
          "internalType": "string",
          "name": "",
          "type": "string"
        }
      ],
      "stateMutability": "view",
      "type": "function"
    },
    {
      "inputs": [],
      "name": "totalSupply",
      "outputs": [
        {
          "internalType": "uint256",
          "name": "",
          "type": "uint256"
        }
      ],
      "stateMutability": "view",
      "type": "function"
    },
    {
      "inputs": [
        {
          "internalType": "address",
          "name": "_to",
          "type": "address"
        },
        {
          "internalType": "uint256",
          "name": "_value",
          "type": "uint256"
        }
      ],
      "name": "transfer",
      "outputs": [
        {
          "internalType": "bool",
          "name": "",
          "type": "bool"
        }
      ],
      "stateMutability": "nonpayable",
      "type": "function"
    },
    {
      "inputs": [
        {
          "internalType": "address",
          "name": "_from",
          "type": "address"
        },
        {
          "internalType": "address",
          "name": "_to",
          "type": "address"
        },
        {
          "internalType": "uint256",
          "name": "_value",
          "type": "uint256"
        }
      ],
      "name": "transferFrom",
      "outputs": [
        {
          "internalType": "bool",
          "name": "",
          "type": "bool"
        }
      ],
      "stateMutability": "nonpayable",
      "type": "function"
    }
  ],
  "bytecode": "0x60806040523480156200001157600080fd5b50604051620010c5380380620010c5833981810160405281019062000037919062000193565b81600390805190602001906200004f92919062000071565b5080600490805190602001906200006892919062000071565b50505062000376565b8280546200007f906200029b565b90600052602060002090601f016020900481019282620000a35760008555620000ef565b82601f10620000be57805160ff1916838001178555620000ef565b82800160010185558215620000ef579182015b82811115620000ee578251825591602001919060010190620000d1565b5b509050620000fe919062000102565b5090565b5b808211156200011d57600081600090555060010162000103565b5090565b60006200013862000132846200022f565b62000206565b9050828152602081018484840111156200015157600080fd5b6200015e84828562000265565b509392505050565b600082601f8301126200017857600080fd5b81516200018a84826020860162000121565b91505092915050565b60008060408385031215620001a757600080fd5b600083015167ffffffffffffffff811115620001c257600080fd5b620001d08582860162000166565b925050602083015167ffffffffffffffff811115620001ee57600080fd5b620001fc8582860162000166565b9150509250929050565b60006200021262000225565b9050620002208282620002d1565b919050565b6000604051905090565b600067ffffffffffffffff8211156200024d576200024c62000336565b5b620002588262000365565b9050602081019050919050565b60005b838110156200028557808201518184015260208101905062000268565b8381111562000295576000848401525b50505050565b60006002820490506001821680620002b457607f821691505b60208210811415620002cb57620002ca62000307565b5b50919050565b620002dc8262000365565b810181811067ffffffffffffffff82111715620002fe57620002fd62000336565b5b80604052505050565b7f4e487b7100000000000000000000000000000000000000000000000000000000600052602260045260246000fd5b7f4e487b7100000000000000000000000000000000000000000000000000000000600052604160045260246000fd5b6000601f19601f8301169050919050565b610d3f80620003866000396000f3fe608060405234801561001057600080fd5b50600436106100885760003560e01c806370a082311161005b57806370a082311461012957806395d89b4114610159578063a9059cbb14610177578063dd62ed3e146101a757610088565b8063095ea7b31461008d57806318160ddd146100bd57806323b872dd146100db578063313ce5671461010b575b600080fd5b6100a760048036038101906100a29190610867565b6101d7565b6040516100b49190610972565b60405180910390f35b6100c56102c9565b6040516100d29190610a0f565b60405180910390f35b6100f560048036038101906100f09190610818565b6102d3565b6040516101029190610972565b60405180910390f35b6101136102eb565b6040516101209190610a2a565b60405180910390f35b610143600480360381019061013e91906107b3565b6102f4565b6040516101509190610a0f565b60405180910390f35b61016161033c565b60405161016e919061098d565b60405180910390f35b610191600480360381019061018c9190610867565b6103ce565b60405161019e9190610972565b60405180910390f35b6101c160048036038101906101bc91906107dc565b6103e5565b6040516101ce9190610a0f565b60405180910390f35b600081600160003373ffffffffffffffffffffffffffffffffffffffff1673ffffffffffffffffffffffffffffffffffffffff16815260200190815260200160002060008573ffffffffffffffffffffffffffffffffffffffff1673ffffffffffffffffffffffffffffffffffffffff168152602001908152602001600020819055508273ffffffffffffffffffffffffffffffffffffffff163373ffffffffffffffffffffffffffffffffffffffff167f8c5be1e5ebec7d5bd14f71427d1e84f3dd0314c0f7b2291e5b200ac8c7c3b925846040516102b79190610a0f565b60405180910390a36001905092915050565b6000600254905090565b60006102e084848461046c565b600190509392505050565b60006007905090565b60008060008373ffffffffffffffffffffffffffffffffffffffff1673ffffffffffffffffffffffffffffffffffffffff168152602001908152602001600020549050919050565b60606004805461034b90610b73565b80601f016020809104026020016040519081016040528092919081815260200182805461037790610b73565b80156103c45780601f10610399576101008083540402835291602001916103c4565b820191906000526020600020905b8154815290600101906020018083116103a757829003601f168201915b5050505050905090565b60006103db33848461046c565b6001905092915050565b6000600160008473ffffffffffffffffffffffffffffffffffffffff1673ffffffffffffffffffffffffffffffffffffffff16815260200190815260200160002060008373ffffffffffffffffffffffffffffffffffffffff1673ffffffffffffffffffffffffffffffffffffffff16815260200190815260200160002054905092915050565b600073ffffffffffffffffffffffffffffffffffffffff168373ffffffffffffffffffffffffffffffffffffffff1614156104dc576040517f08c379a00000000000000000000000000000000000000000000000000000000081526004016104d3906109ef565b60405180910390fd5b600073ffffffffffffffffffffffffffffffffffffffff168273ffffffffffffffffffffffffffffffffffffffff16141561054c576040517f08c379a0000000000000000000000000000000000000000000000000000000008152600401610543906109af565b60405180910390fd5b6000808473ffffffffffffffffffffffffffffffffffffffff1673ffffffffffffffffffffffffffffffffffffffff168152602001908152602001600020548111156105cd576040517f08c379a00000000000000000000000000000000000000000000000000000000081526004016105c4906109cf565b60405180910390fd5b61061e816000808673ffffffffffffffffffffffffffffffffffffffff1673ffffffffffffffffffffffffffffffffffffffff1681526020019081526020016000205461075d90919063ffffffff16565b6000808573ffffffffffffffffffffffffffffffffffffffff1673ffffffffffffffffffffffffffffffffffffffff168152602001908152602001600020819055506106b1816000808573ffffffffffffffffffffffffffffffffffffffff1673ffffffffffffffffffffffffffffffffffffffff1681526020019081526020016000205461077390919063ffffffff16565b6000808473ffffffffffffffffffffffffffffffffffffffff1673ffffffffffffffffffffffffffffffffffffffff168152602001908152602001600020819055508173ffffffffffffffffffffffffffffffffffffffff163373ffffffffffffffffffffffffffffffffffffffff167fddf252ad1be2c89b69c2b068fc378daa952ba7f163c4a11628f55a4df523b3ef836040516107509190610a0f565b60405180910390a3505050565b6000818361076b9190610ab7565b905092915050565b600081836107819190610a61565b905092915050565b60008135905061079881610cdb565b92915050565b6000813590506107ad81610cf2565b92915050565b6000602082840312156107c557600080fd5b60006107d384828501610789565b91505092915050565b600080604083850312156107ef57600080fd5b60006107fd85828601610789565b925050602061080e85828601610789565b9150509250929050565b60008060006060848603121561082d57600080fd5b600061083b86828701610789565b935050602061084c86828701610789565b925050604061085d8682870161079e565b9150509250925092565b6000806040838503121561087a57600080fd5b600061088885828601610789565b92505060206108998582860161079e565b9150509250929050565b6108ac81610afd565b82525050565b60006108bd82610a45565b6108c78185610a50565b93506108d7818560208601610b40565b6108e081610c03565b840191505092915050565b60006108f8602383610a50565b915061090382610c14565b604082019050919050565b600061091b601883610a50565b915061092682610c63565b602082019050919050565b600061093e602583610a50565b915061094982610c8c565b604082019050919050565b61095d81610b29565b82525050565b61096c81610b33565b82525050565b600060208201905061098760008301846108a3565b92915050565b600060208201905081810360008301526109a781846108b2565b905092915050565b600060208201905081810360008301526109c8816108eb565b9050919050565b600060208201905081810360008301526109e88161090e565b9050919050565b60006020820190508181036000830152610a0881610931565b9050919050565b6000602082019050610a246000830184610954565b92915050565b6000602082019050610a3f6000830184610963565b92915050565b600081519050919050565b600082825260208201905092915050565b6000610a6c82610b29565b9150610a7783610b29565b9250827fffffffffffffffffffffffffffffffffffffffffffffffffffffffffffffffff03821115610aac57610aab610ba5565b5b828201905092915050565b6000610ac282610b29565b9150610acd83610b29565b925082821015610ae057610adf610ba5565b5b828203905092915050565b6000610af682610b09565b9050919050565b60008115159050919050565b600073ffffffffffffffffffffffffffffffffffffffff82169050919050565b6000819050919050565b600060ff82169050919050565b60005b83811015610b5e578082015181840152602081019050610b43565b83811115610b6d576000848401525b50505050565b60006002820490506001821680610b8b57607f821691505b60208210811415610b9f57610b9e610bd4565b5b50919050565b7f4e487b7100000000000000000000000000000000000000000000000000000000600052601160045260246000fd5b7f4e487b7100000000000000000000000000000000000000000000000000000000600052602260045260246000fd5b6000601f19601f8301169050919050565b7f45524332303a207472616e7366657220746f20746865207a65726f206164647260008201527f6573730000000000000000000000000000000000000000000000000000000000602082015250565b7f45524332303a204e6f7420656e6f75676820746f6b656e730000000000000000600082015250565b7f45524332303a207472616e736665722066726f6d20746865207a65726f20616460008201527f6472657373000000000000000000000000000000000000000000000000000000602082015250565b610ce481610aeb565b8114610cef57600080fd5b50565b610cfb81610b29565b8114610d0657600080fd5b5056fea2646970667358221220002378f647d4a273a152523895234814ea3762a78b09371e159272564d905fde64736f6c63430008040033",
  "linkReferences": {},
  "deployedLinkReferences": {}
}