{
  "_format": "hh-sol-artifact-1",
  "contractName": "Pausable",
  "sourceName": "contracts/Pausable.sol",
  "abi": [
    {
      "anonymous": false,
      "inputs": [
        {
          "indexed": false,
          "internalType": "address",
          "name": "account",
          "type": "address"
        }
      ],
      "name": "Paused",
      "type": "event"
    },
    {
      "anonymous": false,
      "inputs": [
        {
          "indexed": false,
          "internalType": "address",
          "name": "account",
          "type": "address"
        }
      ],
      "name": "Unpaused",
      "type": "event"
    },
    {
      "inputs": [],
      "name": "_pause",
      "outputs": [],
      "stateMutability": "nonpayable",
      "type": "function"
    },
    {
      "inputs": [],
      "name": "_unpause",
      "outputs": [],
      "stateMutability": "nonpayable",
      "type": "function"
    },
    {
      "inputs": [],
      "name": "paused",
      "outputs": [
        {
          "internalType": "bool",
          "name": "",
          "type": "bool"
        }
      ],
      "stateMutability": "view",
      "type": "function"
    }
  ],
  "bytecode": "0x608060405260008060006101000a81548160ff02191690831515021790555034801561002a57600080fd5b5061037b8061003a6000396000f3fe608060405234801561001057600080fd5b50600436106100415760003560e01c8063320b2ad9146100465780635c975abb14610050578063fc8234cb1461006e575b600080fd5b61004e610078565b005b610058610119565b6040516100659190610249565b60405180910390f35b61007661012a565b005b60008054906101000a900460ff16156100c6576040517f08c379a00000000000000000000000000000000000000000000000000000000081526004016100bd90610264565b60405180910390fd5b60016000806101000a81548160ff0219169083151502179055507f62e78cea01bee320cd4e420270b5ea74000d11b0c9f74754ebdbfc544b05a2583360405161010f919061022e565b60405180910390a1565b60008054906101000a900460ff1681565b60008054906101000a900460ff16610177576040517f08c379a000000000000000000000000000000000000000000000000000000000815260040161016e90610284565b60405180910390fd5b60008060006101000a81548160ff0219169083151502179055507f5db9ee0a495bf2e6ff9c91a7834c1ba4fdd244a5e8aa4e537bd38aeae4b073aa336040516101c0919061022e565b60405180910390a1565b6101d3816102b5565b82525050565b6101e2816102c7565b82525050565b60006101f56010836102a4565b9150610200826102f3565b602082019050919050565b60006102186014836102a4565b91506102238261031c565b602082019050919050565b600060208201905061024360008301846101ca565b92915050565b600060208201905061025e60008301846101d9565b92915050565b6000602082019050818103600083015261027d816101e8565b9050919050565b6000602082019050818103600083015261029d8161020b565b9050919050565b600082825260208201905092915050565b60006102c0826102d3565b9050919050565b60008115159050919050565b600073ffffffffffffffffffffffffffffffffffffffff82169050919050565b7f5061757361626c653a2070617573656400000000000000000000000000000000600082015250565b7f5061757361626c653a204e6f742070617573656400000000000000000000000060008201525056fea26469706673582212204d73ed262d0d375a62ee876b467c83219481fb4279bc5439a67e34f5186f62b264736f6c63430008040033",
  "linkReferences": {},
  "deployedLinkReferences": {}
}