{
  "_format": "hh-sol-artifact-1",
  "contractName": "Token",
  "sourceName": "contracts/Token.sol",
  "abi": [
    {
      "inputs": [],
      "stateMutability": "nonpayable",
      "type": "constructor"
    },
    {
      "anonymous": false,
      "inputs": [
        {
          "indexed": true,
          "internalType": "address",
          "name": "owner",
          "type": "address"
        },
        {
          "indexed": true,
          "internalType": "address",
          "name": "spender",
          "type": "address"
        },
        {
          "indexed": false,
          "internalType": "uint256",
          "name": "value",
          "type": "uint256"
        }
      ],
      "name": "Approval",
      "type": "event"
    },
    {
      "anonymous": false,
      "inputs": [
        {
          "indexed": true,
          "internalType": "address",
          "name": "previousOwner",
          "type": "address"
        },
        {
          "indexed": true,
          "internalType": "address",
          "name": "newOwner",
          "type": "address"
        }
      ],
      "name": "OwnershipTransferred",
      "type": "event"
    },
    {
      "anonymous": false,
      "inputs": [
        {
          "indexed": false,
          "internalType": "address",
          "name": "account",
          "type": "address"
        }
      ],
      "name": "Paused",
      "type": "event"
    },
    {
      "anonymous": false,
      "inputs": [
        {
          "indexed": true,
          "internalType": "address",
          "name": "_from",
          "type": "address"
        },
        {
          "indexed": true,
          "internalType": "address",
          "name": "_to",
          "type": "address"
        },
        {
          "indexed": false,
          "internalType": "uint256",
          "name": "_value",
          "type": "uint256"
        }
      ],
      "name": "Transfer",
      "type": "event"
    },
    {
      "anonymous": false,
      "inputs": [
        {
          "indexed": false,
          "internalType": "address",
          "name": "account",
          "type": "address"
        }
      ],
      "name": "Unpaused",
      "type": "event"
    },
    {
      "inputs": [],
      "name": "INITIAL_SUPPLY",
      "outputs": [
        {
          "internalType": "uint256",
          "name": "",
          "type": "uint256"
        }
      ],
      "stateMutability": "view",
      "type": "function"
    },
    {
      "inputs": [],
      "name": "_pause",
      "outputs": [],
      "stateMutability": "nonpayable",
      "type": "function"
    },
    {
      "inputs": [],
      "name": "_unpause",
      "outputs": [],
      "stateMutability": "nonpayable",
      "type": "function"
    },
    {
      "inputs": [
        {
          "internalType": "address",
          "name": "owner",
          "type": "address"
        },
        {
          "internalType": "address",
          "name": "delegate",
          "type": "address"
        }
      ],
      "name": "allowance",
      "outputs": [
        {
          "internalType": "uint256",
          "name": "",
          "type": "uint256"
        }
      ],
      "stateMutability": "view",
      "type": "function"
    },
    {
      "inputs": [
        {
          "internalType": "address",
          "name": "delegate",
          "type": "address"
        },
        {
          "internalType": "uint256",
          "name": "numTokens",
          "type": "uint256"
        }
      ],
      "name": "approve",
      "outputs": [
        {
          "internalType": "bool",
          "name": "",
          "type": "bool"
        }
      ],
      "stateMutability": "nonpayable",
      "type": "function"
    },
    {
      "inputs": [
        {
          "internalType": "address",
          "name": "_who",
          "type": "address"
        }
      ],
      "name": "balanceOf",
      "outputs": [
        {
          "internalType": "uint256",
          "name": "",
          "type": "uint256"
        }
      ],
      "stateMutability": "view",
      "type": "function"
    },
    {
      "inputs": [],
      "name": "decimals",
      "outputs": [
        {
          "internalType": "uint8",
          "name": "",
          "type": "uint8"
        }
      ],
      "stateMutability": "pure",
      "type": "function"
    },
    {
      "inputs": [
        {
          "internalType": "address",
          "name": "_to",
          "type": "address"
        },
        {
          "internalType": "uint256",
          "name": "_amount",
          "type": "uint256"
        }
      ],
      "name": "mint",
      "outputs": [],
      "stateMutability": "nonpayable",
      "type": "function"
    },
    {
      "inputs": [],
      "name": "owner",
      "outputs": [
        {
          "internalType": "address",
          "name": "",
          "type": "address"
        }
      ],
      "stateMutability": "view",
      "type": "function"
    },
    {
      "inputs": [],
      "name": "pause",
      "outputs": [],
      "stateMutability": "nonpayable",
      "type": "function"
    },
    {
      "inputs": [],
      "name": "paused",
      "outputs": [
        {
          "internalType": "bool",
          "name": "",
          "type": "bool"
        }
      ],
      "stateMutability": "view",
      "type": "function"
    },
    {
      "inputs": [],
      "name": "renounceOwnership",
      "outputs": [],
      "stateMutability": "nonpayable",
      "type": "function"
    },
    {
      "inputs": [],
      "name": "symbol",
      "outputs": [
        {
          "internalType": "string",
          "name": "",
          "type": "string"
        }
      ],
      "stateMutability": "view",
      "type": "function"
    },
    {
      "inputs": [],
      "name": "totalSupply",
      "outputs": [
        {
          "internalType": "uint256",
          "name": "",
          "type": "uint256"
        }
      ],
      "stateMutability": "view",
      "type": "function"
    },
    {
      "inputs": [
        {
          "internalType": "address",
          "name": "_to",
          "type": "address"
        },
        {
          "internalType": "uint256",
          "name": "_value",
          "type": "uint256"
        }
      ],
      "name": "transfer",
      "outputs": [
        {
          "internalType": "bool",
          "name": "",
          "type": "bool"
        }
      ],
      "stateMutability": "nonpayable",
      "type": "function"
    },
    {
      "inputs": [
        {
          "internalType": "address",
          "name": "_from",
          "type": "address"
        },
        {
          "internalType": "address",
          "name": "_to",
          "type": "address"
        },
        {
          "internalType": "uint256",
          "name": "_value",
          "type": "uint256"
        }
      ],
      "name": "transferFrom",
      "outputs": [
        {
          "internalType": "bool",
          "name": "",
          "type": "bool"
        }
      ],
      "stateMutability": "nonpayable",
      "type": "function"
    },
    {
      "inputs": [
        {
          "internalType": "address",
          "name": "newOwner",
          "type": "address"
        }
      ],
      "name": "transferOwnership",
      "outputs": [],
      "stateMutability": "nonpayable",
      "type": "function"
    },
    {
      "inputs": [],
      "name": "unpause",
      "outputs": [],
      "stateMutability": "nonpayable",
      "type": "function"
    }
  ],
  "bytecode": "0x60806040526000600560006101000a81548160ff0219169083151502179055503480156200002c57600080fd5b506040518060400160405280600b81526020017f5468616c6920746f6b656e0000000000000000000000000000000000000000008152506040518060400160405280600581526020017f5448414c490000000000000000000000000000000000000000000000000000008152508160039080519060200190620000b1929190620003c4565b508060049080519060200190620000ca929190620003c4565b505050620000ed620000e16200011960201b60201c565b6200012160201b60201c565b6200011362000101620001e760201b60201c565b6402540be4006200021160201b60201c565b62000620565b600033905090565b6000600560019054906101000a900473ffffffffffffffffffffffffffffffffffffffff16905081600560016101000a81548173ffffffffffffffffffffffffffffffffffffffff021916908373ffffffffffffffffffffffffffffffffffffffff1602179055508173ffffffffffffffffffffffffffffffffffffffff168173ffffffffffffffffffffffffffffffffffffffff167f8be0079c531659141344cd1fd0a4f28419497f9722a3daafe3b4186f6b6457e060405160405180910390a35050565b6000600560019054906101000a900473ffffffffffffffffffffffffffffffffffffffff16905090565b600073ffffffffffffffffffffffffffffffffffffffff168273ffffffffffffffffffffffffffffffffffffffff16141562000284576040517f08c379a00000000000000000000000000000000000000000000000000000000081526004016200027b90620004ac565b60405180910390fd5b620002a081600254620003ac60201b62000afc1790919060201c565b600281905550620002fe816000808573ffffffffffffffffffffffffffffffffffffffff1673ffffffffffffffffffffffffffffffffffffffff16815260200190815260200160002054620003ac60201b62000afc1790919060201c565b6000808473ffffffffffffffffffffffffffffffffffffffff1673ffffffffffffffffffffffffffffffffffffffff168152602001908152602001600020819055508173ffffffffffffffffffffffffffffffffffffffff16600073ffffffffffffffffffffffffffffffffffffffff167fddf252ad1be2c89b69c2b068fc378daa952ba7f163c4a11628f55a4df523b3ef83604051620003a09190620004ce565b60405180910390a35050565b60008183620003bc9190620004fc565b905092915050565b828054620003d29062000563565b90600052602060002090601f016020900481019282620003f6576000855562000442565b82601f106200041157805160ff191683800117855562000442565b8280016001018555821562000442579182015b828111156200044157825182559160200191906001019062000424565b5b50905062000451919062000455565b5090565b5b808211156200047057600081600090555060010162000456565b5090565b600062000483601f83620004eb565b91506200049082620005f7565b602082019050919050565b620004a68162000559565b82525050565b60006020820190508181036000830152620004c78162000474565b9050919050565b6000602082019050620004e560008301846200049b565b92915050565b600082825260208201905092915050565b6000620005098262000559565b9150620005168362000559565b9250827fffffffffffffffffffffffffffffffffffffffffffffffffffffffffffffffff038211156200054e576200054d62000599565b5b828201905092915050565b6000819050919050565b600060028204905060018216806200057c57607f821691505b60208210811415620005935762000592620005c8565b5b50919050565b7f4e487b7100000000000000000000000000000000000000000000000000000000600052601160045260246000fd5b7f4e487b7100000000000000000000000000000000000000000000000000000000600052602260045260246000fd5b7f45524332303a206d696e7420746f20746865207a65726f206164647265737300600082015250565b6118c080620006306000396000f3fe608060405234801561001057600080fd5b50600436106101165760003560e01c806370a08231116100a257806395d89b411161007157806395d89b4114610285578063a9059cbb146102a3578063dd62ed3e146102d3578063f2fde38b14610303578063fc8234cb1461031f57610116565b806370a0823114610223578063715018a6146102535780638456cb591461025d5780638da5cb5b1461026757610116565b8063313ce567116100e9578063313ce567146101b7578063320b2ad9146101d55780633f4ba83a146101df57806340c10f19146101e95780635c975abb1461020557610116565b8063095ea7b31461011b57806318160ddd1461014b57806323b872dd146101695780632ff2e9dc14610199575b600080fd5b6101356004803603810190610130919061117c565b610329565b6040516101429190611360565b60405180910390f35b61015361041b565b604051610160919061149d565b60405180910390f35b610183600480360381019061017e919061112d565b610425565b6040516101909190611360565b60405180910390f35b6101a161048b565b6040516101ae919061149d565b60405180910390f35b6101bf610494565b6040516101cc91906114b8565b60405180910390f35b6101dd61049d565b005b6101e7610541565b005b61020360048036038101906101fe919061117c565b6105c7565b005b61020d610651565b60405161021a9190611360565b60405180910390f35b61023d600480360381019061023891906110c8565b610664565b60405161024a919061149d565b60405180910390f35b61025b6106ac565b005b610265610734565b005b61026f6107ba565b60405161027c9190611345565b60405180910390f35b61028d6107e4565b60405161029a919061137b565b60405180910390f35b6102bd60048036038101906102b8919061117c565b610876565b6040516102ca9190611360565b60405180910390f35b6102ed60048036038101906102e891906110f1565b6108da565b6040516102fa919061149d565b60405180910390f35b61031d600480360381019061031891906110c8565b610961565b005b610327610a59565b005b600081600160003373ffffffffffffffffffffffffffffffffffffffff1673ffffffffffffffffffffffffffffffffffffffff16815260200190815260200160002060008573ffffffffffffffffffffffffffffffffffffffff1673ffffffffffffffffffffffffffffffffffffffff168152602001908152602001600020819055508273ffffffffffffffffffffffffffffffffffffffff163373ffffffffffffffffffffffffffffffffffffffff167f8c5be1e5ebec7d5bd14f71427d1e84f3dd0314c0f7b2291e5b200ac8c7c3b92584604051610409919061149d565b60405180910390a36001905092915050565b6000600254905090565b6000600560009054906101000a900460ff1615610477576040517f08c379a000000000000000000000000000000000000000000000000000000000815260040161046e906113dd565b60405180910390fd5b610482848484610b12565b90509392505050565b6402540be40081565b60006007905090565b600560009054906101000a900460ff16156104ed576040517f08c379a00000000000000000000000000000000000000000000000000000000081526004016104e4906113dd565b60405180910390fd5b6001600560006101000a81548160ff0219169083151502179055507f62e78cea01bee320cd4e420270b5ea74000d11b0c9f74754ebdbfc544b05a258336040516105379190611345565b60405180910390a1565b610549610b2a565b73ffffffffffffffffffffffffffffffffffffffff166105676107ba565b73ffffffffffffffffffffffffffffffffffffffff16146105bd576040517f08c379a00000000000000000000000000000000000000000000000000000000081526004016105b4906113fd565b60405180910390fd5b6105c5610a59565b565b6105cf610b2a565b73ffffffffffffffffffffffffffffffffffffffff166105ed6107ba565b73ffffffffffffffffffffffffffffffffffffffff1614610643576040517f08c379a000000000000000000000000000000000000000000000000000000000815260040161063a906113fd565b60405180910390fd5b61064d8282610b32565b5050565b600560009054906101000a900460ff1681565b60008060008373ffffffffffffffffffffffffffffffffffffffff1673ffffffffffffffffffffffffffffffffffffffff168152602001908152602001600020549050919050565b6106b4610b2a565b73ffffffffffffffffffffffffffffffffffffffff166106d26107ba565b73ffffffffffffffffffffffffffffffffffffffff1614610728576040517f08c379a000000000000000000000000000000000000000000000000000000000815260040161071f906113fd565b60405180910390fd5b6107326000610cba565b565b61073c610b2a565b73ffffffffffffffffffffffffffffffffffffffff1661075a6107ba565b73ffffffffffffffffffffffffffffffffffffffff16146107b0576040517f08c379a00000000000000000000000000000000000000000000000000000000081526004016107a7906113fd565b60405180910390fd5b6107b861049d565b565b6000600560019054906101000a900473ffffffffffffffffffffffffffffffffffffffff16905090565b6060600480546107f390611601565b80601f016020809104026020016040519081016040528092919081815260200182805461081f90611601565b801561086c5780601f106108415761010080835404028352916020019161086c565b820191906000526020600020905b81548152906001019060200180831161084f57829003601f168201915b5050505050905090565b6000600560009054906101000a900460ff16156108c8576040517f08c379a00000000000000000000000000000000000000000000000000000000081526004016108bf906113dd565b60405180910390fd5b6108d28383610d80565b905092915050565b6000600160008473ffffffffffffffffffffffffffffffffffffffff1673ffffffffffffffffffffffffffffffffffffffff16815260200190815260200160002060008373ffffffffffffffffffffffffffffffffffffffff1673ffffffffffffffffffffffffffffffffffffffff16815260200190815260200160002054905092915050565b610969610b2a565b73ffffffffffffffffffffffffffffffffffffffff166109876107ba565b73ffffffffffffffffffffffffffffffffffffffff16146109dd576040517f08c379a00000000000000000000000000000000000000000000000000000000081526004016109d4906113fd565b60405180910390fd5b600073ffffffffffffffffffffffffffffffffffffffff168173ffffffffffffffffffffffffffffffffffffffff161415610a4d576040517f08c379a0000000000000000000000000000000000000000000000000000000008152600401610a44906113bd565b60405180910390fd5b610a5681610cba565b50565b600560009054906101000a900460ff16610aa8576040517f08c379a0000000000000000000000000000000000000000000000000000000008152600401610a9f9061147d565b60405180910390fd5b6000600560006101000a81548160ff0219169083151502179055507f5db9ee0a495bf2e6ff9c91a7834c1ba4fdd244a5e8aa4e537bd38aeae4b073aa33604051610af29190611345565b60405180910390a1565b60008183610b0a91906114ef565b905092915050565b6000610b1f848484610d97565b600190509392505050565b600033905090565b600073ffffffffffffffffffffffffffffffffffffffff168273ffffffffffffffffffffffffffffffffffffffff161415610ba2576040517f08c379a0000000000000000000000000000000000000000000000000000000008152600401610b999061145d565b60405180910390fd5b610bb781600254610afc90919063ffffffff16565b600281905550610c0e816000808573ffffffffffffffffffffffffffffffffffffffff1673ffffffffffffffffffffffffffffffffffffffff16815260200190815260200160002054610afc90919063ffffffff16565b6000808473ffffffffffffffffffffffffffffffffffffffff1673ffffffffffffffffffffffffffffffffffffffff168152602001908152602001600020819055508173ffffffffffffffffffffffffffffffffffffffff16600073ffffffffffffffffffffffffffffffffffffffff167fddf252ad1be2c89b69c2b068fc378daa952ba7f163c4a11628f55a4df523b3ef83604051610cae919061149d565b60405180910390a35050565b6000600560019054906101000a900473ffffffffffffffffffffffffffffffffffffffff16905081600560016101000a81548173ffffffffffffffffffffffffffffffffffffffff021916908373ffffffffffffffffffffffffffffffffffffffff1602179055508173ffffffffffffffffffffffffffffffffffffffff168173ffffffffffffffffffffffffffffffffffffffff167f8be0079c531659141344cd1fd0a4f28419497f9722a3daafe3b4186f6b6457e060405160405180910390a35050565b6000610d8d338484610d97565b6001905092915050565b600073ffffffffffffffffffffffffffffffffffffffff168373ffffffffffffffffffffffffffffffffffffffff161415610e07576040517f08c379a0000000000000000000000000000000000000000000000000000000008152600401610dfe9061143d565b60405180910390fd5b600073ffffffffffffffffffffffffffffffffffffffff168273ffffffffffffffffffffffffffffffffffffffff161415610e77576040517f08c379a0000000000000000000000000000000000000000000000000000000008152600401610e6e9061139d565b60405180910390fd5b6000808473ffffffffffffffffffffffffffffffffffffffff1673ffffffffffffffffffffffffffffffffffffffff16815260200190815260200160002054811115610ef8576040517f08c379a0000000000000000000000000000000000000000000000000000000008152600401610eef9061141d565b60405180910390fd5b610f49816000808673ffffffffffffffffffffffffffffffffffffffff1673ffffffffffffffffffffffffffffffffffffffff1681526020019081526020016000205461108890919063ffffffff16565b6000808573ffffffffffffffffffffffffffffffffffffffff1673ffffffffffffffffffffffffffffffffffffffff16815260200190815260200160002081905550610fdc816000808573ffffffffffffffffffffffffffffffffffffffff1673ffffffffffffffffffffffffffffffffffffffff16815260200190815260200160002054610afc90919063ffffffff16565b6000808473ffffffffffffffffffffffffffffffffffffffff1673ffffffffffffffffffffffffffffffffffffffff168152602001908152602001600020819055508173ffffffffffffffffffffffffffffffffffffffff163373ffffffffffffffffffffffffffffffffffffffff167fddf252ad1be2c89b69c2b068fc378daa952ba7f163c4a11628f55a4df523b3ef8360405161107b919061149d565b60405180910390a3505050565b600081836110969190611545565b905092915050565b6000813590506110ad8161185c565b92915050565b6000813590506110c281611873565b92915050565b6000602082840312156110da57600080fd5b60006110e88482850161109e565b91505092915050565b6000806040838503121561110457600080fd5b60006111128582860161109e565b92505060206111238582860161109e565b9150509250929050565b60008060006060848603121561114257600080fd5b60006111508682870161109e565b93505060206111618682870161109e565b9250506040611172868287016110b3565b9150509250925092565b6000806040838503121561118f57600080fd5b600061119d8582860161109e565b92505060206111ae858286016110b3565b9150509250929050565b6111c181611579565b82525050565b6111d08161158b565b82525050565b60006111e1826114d3565b6111eb81856114de565b93506111fb8185602086016115ce565b61120481611691565b840191505092915050565b600061121c6023836114de565b9150611227826116a2565b604082019050919050565b600061123f6026836114de565b915061124a826116f1565b604082019050919050565b60006112626010836114de565b915061126d82611740565b602082019050919050565b60006112856020836114de565b915061129082611769565b602082019050919050565b60006112a86018836114de565b91506112b382611792565b602082019050919050565b60006112cb6025836114de565b91506112d6826117bb565b604082019050919050565b60006112ee601f836114de565b91506112f98261180a565b602082019050919050565b60006113116014836114de565b915061131c82611833565b602082019050919050565b611330816115b7565b82525050565b61133f816115c1565b82525050565b600060208201905061135a60008301846111b8565b92915050565b600060208201905061137560008301846111c7565b92915050565b6000602082019050818103600083015261139581846111d6565b905092915050565b600060208201905081810360008301526113b68161120f565b9050919050565b600060208201905081810360008301526113d681611232565b9050919050565b600060208201905081810360008301526113f681611255565b9050919050565b6000602082019050818103600083015261141681611278565b9050919050565b600060208201905081810360008301526114368161129b565b9050919050565b60006020820190508181036000830152611456816112be565b9050919050565b60006020820190508181036000830152611476816112e1565b9050919050565b6000602082019050818103600083015261149681611304565b9050919050565b60006020820190506114b26000830184611327565b92915050565b60006020820190506114cd6000830184611336565b92915050565b600081519050919050565b600082825260208201905092915050565b60006114fa826115b7565b9150611505836115b7565b9250827fffffffffffffffffffffffffffffffffffffffffffffffffffffffffffffffff0382111561153a57611539611633565b5b828201905092915050565b6000611550826115b7565b915061155b836115b7565b92508282101561156e5761156d611633565b5b828203905092915050565b600061158482611597565b9050919050565b60008115159050919050565b600073ffffffffffffffffffffffffffffffffffffffff82169050919050565b6000819050919050565b600060ff82169050919050565b60005b838110156115ec5780820151818401526020810190506115d1565b838111156115fb576000848401525b50505050565b6000600282049050600182168061161957607f821691505b6020821081141561162d5761162c611662565b5b50919050565b7f4e487b7100000000000000000000000000000000000000000000000000000000600052601160045260246000fd5b7f4e487b7100000000000000000000000000000000000000000000000000000000600052602260045260246000fd5b6000601f19601f8301169050919050565b7f45524332303a207472616e7366657220746f20746865207a65726f206164647260008201527f6573730000000000000000000000000000000000000000000000000000000000602082015250565b7f4f776e61626c653a206e6577206f776e657220697320746865207a65726f206160008201527f6464726573730000000000000000000000000000000000000000000000000000602082015250565b7f5061757361626c653a2070617573656400000000000000000000000000000000600082015250565b7f4f776e61626c653a2063616c6c6572206973206e6f7420746865206f776e6572600082015250565b7f45524332303a204e6f7420656e6f75676820746f6b656e730000000000000000600082015250565b7f45524332303a207472616e736665722066726f6d20746865207a65726f20616460008201527f6472657373000000000000000000000000000000000000000000000000000000602082015250565b7f45524332303a206d696e7420746f20746865207a65726f206164647265737300600082015250565b7f5061757361626c653a204e6f7420706175736564000000000000000000000000600082015250565b61186581611579565b811461187057600080fd5b50565b61187c816115b7565b811461188757600080fd5b5056fea26469706673582212201de1ec8a3927212c0b3ee43912d40495d04906933b1995ffb4eff7c86a259cc664736f6c63430008040033",
  "linkReferences": {},
  "deployedLinkReferences": {}
}